:020000040800F2
:1000000000000220314D00080B4800080D48000890
:100010000F480008114800081348000800000000BD
:10002000000000000000000000000000154800086B
:100030001748000800000000194800081B48000885
:10004000814D0008814D0008814D0008814D000858
:10005000814D0008814D000835480008814D000899
:10006000814D0008814D0008814D0008814D000838
:10007000814D0008814D0008814D0008814D000828
:10008000814D0008814D0008814D0008814D000818
:10009000814D0008814D0008814D0008814D000808
:1000A000814D0008814D0008814D0008814D0008F8
:1000B000814D0008814D0008814D0008814D0008E8
:1000C000814D0008814D0008814D0008814D0008D8
:1000D000814D0008814D0008814D0008814D0008C8
:1000E000814D0008814D0008814D0008814D0008B8
:1000F000814D0008814D0008814D0008814D0008A8
:10010000814D000823480008814D0008814D0008FA
:10011000814D0008814D0008814D0008814D000887
:10012000814D0008814D0008814D00082B480008D2
:10013000814D0008814D0008814D0008814D000867
:10014000814D0008814D0008814D0008814D000857
:10015000814D0008814D0008814D0008814D000847
:10016000814D0008814D0008814D0008814D000837
:10017000814D0008814D0008814D000800000000FD
:08018000814D0008814D0008CB
:1001900010B5054C237833B9044B13B10448AFF3C1
:1001A00000800123237010BDE40000200000000047
:1001B0000456000808B5034B1BB103490348AFF3CD
:1001C000008008BD00000000E80000200456000880
:1001D00001F0FF01102A2BDB10F0070F08D010F8F8
:1001E000013B013A8B422DD010F0070F42B3F6D1FC
:1001F000F0B441EA012141EA014122F007047FF015
:1002000000070023F0E80256083C85EA010586EA6B
:10021000010685FA47F5A3FA87F586FA47F6A5FAA7
:1002200087F68EB9EED1F0BC01F0FF0102F00702B3
:1002300032B110F8013B013A83EA010313B1F8D15E
:100240000020704701387047002D06BF354603383F
:10025000073815F0010F07D1013015F4807F02BF78
:10026000013015F4C03F0130F0BC0138704700BFC9
:1002700010B5ADF50A7D00208990164901F008FD02
:1002800020BB0A2002F05EF902221349684601F001
:1002900013FD88B9114C89AB04222146684601F050
:1002A00097FE684601F0DFFF0021084601F0F0FCF0
:1002B00020680DF50A7D10BD684601F0D4FF0021CD
:1002C000084601F0E5FC4FF0FF30F2E74FF0FF3059
:1002D000EFE700BF68050020EC7F00080001002068
:1002E00030B5ADF50B7D00208990244901F0D0FC9C
:1002F00000283FD10A2002F025F901222049684652
:1003000001F0DAFC20B3684601F0ADFF0A221C4977
:10031000684601F0D1FC88B91A4C0025256089ABEC
:1003200004222146684601F053FE684601F09BFF17
:100330002946284601F0ACFC206818E0684601F028
:1003400092FF0021084601F0A3FC4FF0FF300EE0C1
:100350000C4C89AB04222146684601F060FD6846DA
:1003600001F081FF0021084601F092FC20680DF5A4
:100370000B7D30BD4FF0FF30F9E700BF680500206E
:10038000EC7F000800010020F0B5ADF5137D0024DE
:1003900091941E22214689A804F018FD2B4920467D
:1003A00001F076FC00284DD10A2002F0CBF8284B52
:1003B0001A68284989A804F011FD0A2289A968460B
:1003C00001F07AFC0546064618B130460DF5137D5E
:1003D000F0BD91AB46222049684601F0F9FD214667
:1003E000204602F0D1FB02F0DAFB02F0E3FB16E05C
:1003F00002F0E0FB40F3072761004A1C144B1A444B
:1004000017710B4418710134B4F5A07FF0DB91AB88
:100410004FF420721149684601F0DAFD0135EF2DE5
:1004200001DC3446F0E7684601F01DFF0646002176
:10043000084601F02DFC064A136801331360FFF7EC
:1004400017FFC2E74FF0FF36BFE700BF6805002087
:1004500000010020F87F00080000002004010020B7
:1004600008B5FFF73DFF014B186008BD00010020F3
:10047000F0B583B00121082004F048FA4FF480560B
:10048000009601278DF8047000248DF805408DF842
:1004900006408DF80740124D6946284604F072F870
:1004A0003146284604F0BCF80A2002F04BF83146E9
:1004B000284604F0B3F8402600968DF804708DF8B5
:1004C00005408DF806408DF807406946284604F03F
:1004D00059F83146284604F0A3F803B0F0BD00BF38
:1004E000000C0240F8B505460F4616460121254886
:1004F00004F059F942F210742349224804F078F9C3
:1005000020B9631E002C35D01C46F5E70022294691
:100510001C4804F062F942F210741C49194804F0B6
:1005200067F918B9631E3CB31C46F6E7F9B21548E3
:1005300004F05CF942F210741549124804F058F9BD
:1005400018B9631ED4B11C46F6E731460D4804F0D5
:100550004DF942F210740E490A4804F049F918B9ED
:10056000631E6CB11C46F6E70121064804F028F929
:100570000020F8BDFF20FCE7FF20FAE7FF20F8E7A6
:10058000FF20F6E70054004001000300820007004E
:100590008400070008B5022001F0D4FF00221146B4
:1005A0006020FFF79FFF022001F0CCFF8022012195
:1005B0006020FFF797FF022001F0C4FF8022022194
:1005C0006020FFF78FFF022001F0BCFF0222032111
:1005D0006020FFF787FF022001F0B4FF032204210F
:1005E0006020FFF77FFF022001F0ACFF012209210C
:1005F0006020FFF777FF022001F0A4FF57220B21B4
:100600006020FFF76FFF022001F09CFF61220E21A6
:100610006020FFF767FF022001F094FF40220F21C6
:100620006020FFF75FFF022001F08CFF0122112103
:100630006020FFF757FF022001F084FF62221221A1
:100640006020FFF74FFF022001F07CFFC72213213B
:100650006020FFF747FF022001F074FF3A221421C7
:100660006020FFF73FFF022001F06CFF24221621DB
:100670006020FFF737FF022001F064FF18221721E6
:100680006020FFF72FFF022001F05CFF04221821F9
:100690006020FFF727FF022001F054FF01221921FB
:1006A0006020FFF71FFF022001F04CFF81221A217A
:1006B0006020FFF717FF022001F044FF00221E21F7
:1006C0006020FFF70FFF022001F03CFF3C222421B5
:1006D0006020FFF707FF022001F034FF36222521BA
:1006E0006020FFF7FFFE022001F02CFF722226217E
:1006F0006020FFF7F7FE022001F024FF08222721E7
:100700006020FFF7EFFE022001F01CFF08222821E5
:100710006020FFF7E7FE022001F014FF15222921D7
:100720006020FFF7DFFE022001F00CFF00222A21EB
:100730006020FFF7D7FE022001F004FF00222B21EA
:100740006020FFF7CFFE022001F0FCFE08222C21E2
:100750006020FFF7C7FE022001F0F4FE12223221D2
:100760006020FFF7BFFE022001F0ECFE00223321E3
:100770006020FFF7B7FE022001F0E4FE3F223421A3
:100780006020FFF7AFFE022001F0DCFE00223521E1
:100790006020FFF7A7FE022001F0D4FE3A223621A6
:1007A0006020FFF79FFE022001F0CCFE722238216C
:1007B0006020FFF797FE022001F0C4FE5722392186
:1007C0006020FFF78FFE022001F0BCFECC223A2110
:1007D0006020FFF787FE022001F0B4FE04223B21D7
:1007E0006020FFF77FFE022001F0ACFE99223D2140
:1007F0006020FFF777FE022001F0A4FE02223E21D6
:100800006020FFF76FFE022001F09CFEC1223F2115
:100810006020FFF767FE022001F094FEC022402115
:100820006020FFF75FFE022001F08CFE412211469E
:100830006020FFF757FE022001F084FEC022422113
:100840006020FFF74FFE022001F07CFE0A224321C8
:100850006020FFF747FE022001F074FEF0224421E1
:100860006020FFF73FFE022001F06CFE462245218A
:100870006020FFF737FE022001F064FE622246216D
:100880006020FFF72FFE022001F05CFE2A224721A4
:100890006020FFF727FE022001F054FE3C22482191
:1008A0006020FFF71FFE022001F04CFEFC224A21CF
:1008B0006020FFF717FE022001F044FEFC224B21CE
:1008C0006020FFF70FFE022001F03CFE7F224C214A
:1008D0006020FFF707FE022001F034FE7F224D2149
:1008E0006020FFF7FFFD022001F02CFE7F224E2149
:1008F0006020FFF7F7FD022001F024FE98224F212F
:100900006020FFF7EFFD022001F01CFE982250212D
:100910006020FFF7E7FD022001F014FE00225121C4
:100920006020FFF7DFFD022001F00CFE282252219B
:100930006020FFF7D7FD022001F004FE7022532152
:100940006020FFF7CFFD022001F0FCFD982254212A
:100950006020FFF7C7FD022001F0F4FD1A225821A4
:100960006020FFF7BFFD022001F0ECFD8522592138
:100970006020FFF7B7FD022001F0E4FDA9225A2113
:100980006020FFF7AFFD022001F0DCFD64225B2157
:100990006020FFF7A7FD022001F0D4FD84225C2136
:1009A0006020FFF79FFD022001F0CCFD53225D2166
:1009B0006020FFF797FD022001F0C4FD0E225E21AA
:1009C0006020FFF78FFD022001F0BCFDF0225F21C7
:1009D0006020FFF787FD022001F0B4FDF0226021C6
:1009E0000846FFF77FFD022001F0ACFDF0226121F7
:1009F0006020FFF777FD022001F0A4FD00226221B4
:100A00006020FFF76FFD022001F09CFD00226321B2
:100A10006020FFF767FD022001F094FD02226421AF
:100A20006020FFF75FFD022001F08CFD2022652190
:100A30006020FFF757FD022001F084FD00226621AF
:100A40006020FFF74FFD022001F07CFD0A226921A2
:100A50006020FFF747FD022001F074FD5A226B2150
:100A60006020FFF73FFD022001F06CFD04226C21A5
:100A70006020FFF737FD022001F064FD55226D2153
:100A80006020FFF72FFD022001F05CFD00226E21A7
:100A90006020FFF727FD022001F054FD9D226F2109
:100AA0006020FFF71FFD022001F04CFD2122702184
:100AB0006020FFF717FD022001F044FD782271212C
:100AC0006020FFF70FFD022001F03CFD022001F045
:100AD00039FD112272216020FFF704FD022001F090
:100AE00031FD022001F02EFD012273216020FFF76D
:100AF000F9FC022001F026FD102274216020FFF78E
:100B0000F1FC022001F01EFD102275216020FFF78C
:100B1000E9FC022001F016FD012276216020FFF79A
:100B2000E1FC022001F00EFD022277216020FFF798
:100B3000D9FC022001F006FD12227A216020FFF785
:100B4000D1FC022001F0FEFC08227B216020FFF78F
:100B5000C9FC022001F0F6FC16227C216020FFF780
:100B6000C1FC022001F0EEFC30227D216020FFF765
:100B7000B9FC022001F0E6FC5E227E216020FFF736
:100B8000B1FC022001F0DEFC72227F216020FFF721
:100B9000A9FC022001F0D6FC822280216020FFF710
:100BA000A1FC022001F0CEFC8E2281216020FFF703
:100BB00099FC022001F0C6FC9A2282216020FFF7F6
:100BC00091FC022001F0BEFCA42283216020FFF7EB
:100BD00089FC022001F0B6FCAC2284216020FFF7E2
:100BE00081FC022001F0AEFCB82285216020FFF7D5
:100BF00079FC022001F0A6FCC32286216020FFF7C9
:100C000071FC022001F09EFCD62287216020FFF7B4
:100C100069FC022001F096FCE62288216020FFF7A3
:100C200061FC022001F08EFCF22289216020FFF796
:100C300059FC022001F086FC24228A216020FFF763
:100C400051FC022001F07EFC80228C216020FFF705
:100C500049FC022001F076FC7D2290216020FFF704
:100C600041FC022001F06EFC7B2291216020FFF705
:100C700039FC022001F066FC02229D216020FFF772
:100C800031FC022001F05EFC02229E216020FFF771
:100C900029FC022001F056FC7A229F216020FFF7F8
:100CA00021FC022001F04EFC7922A0216020FFF7F8
:100CB00019FC022001F046FC4022A1216020FFF730
:100CC00011FC022001F03EFC5022A4216020FFF71D
:100CD00009FC022001F036FC6822A5216020FFF704
:100CE00001FC022001F02EFC4A22A6216020FFF721
:100CF000F9FB022001F026FCC122A8216020FFF7A9
:100D0000F1FB022001F01EFCEF22A9216020FFF779
:100D1000E9FB022001F016FC9222AA216020FFF7D5
:100D2000E1FB022001F00EFC0422AB216020FFF762
:100D3000D9FB022001F006FC8022AC216020FFF7E5
:100D4000D1FB022001F0FEFB8022AD216020FFF7E5
:100D5000C9FB022001F0F6FB8022AE216020FFF7E4
:100D6000C1FB022001F0EEFB8022AF216020FFF7E3
:100D7000B9FB022001F0E6FBF222B2216020FFF76E
:100D8000B1FB022001F0DEFB2022B3216020FFF73F
:100D9000A9FB022001F0D6FB2022B4216020FFF73E
:100DA000A1FB022001F0CEFB0022B5216020FFF75D
:100DB00099FB022001F0C6FBAF22B6216020FFF7AD
:100DC00091FB022001F0BEFBAF22B6216020FFF7AD
:100DD00089FB022001F0B6FBAE22BB216020FFF7A9
:100DE00081FB022001F0AEFB7F22BC216020FFF7D7
:100DF00079FB022001F0A6FB7F22BD216020FFF7D6
:100E000071FB022001F09EFB7F22BE216020FFF7D4
:100E100069FB022001F096FB7F22BF216020FFF7D3
:100E200061FB022001F08EFB7F22BF216020FFF7D3
:100E300059FB022001F086FBAA22C0216020FFF7A7
:100E400051FB022001F07EFBC022C1216020FFF790
:100E500049FB022001F076FB0122C2216020FFF74E
:100E600041FB022001F06EFB4E22C3216020FFF700
:100E700039FB022001F066FB0522C6216020FFF746
:100E800031FB022001F05EFB8122C7216020FFF7C9
:100E900029FB022001F056FBE022C9216020FFF768
:100EA00021FB022001F04EFBE822CA216020FFF75F
:100EB00019FB022001F046FBF022CB216020FFF756
:100EC00011FB022001F03EFBD822CC216020FFF76D
:100ED00009FB022001F036FB9322CD216020FFF7B1
:100EE00001FB022001F02EFB08BD00B583B04FF4DA
:100EF000C06001F017FC31238DF8043000238DF819
:100F000005308DF8063001238DF8073001A801F077
:100F100013FC02F075FE034600B90023184603B027
:100F20005DF804FB08B9002070470120704710B538
:100F30000846510201234FF4007202F0B1FE02F0A4
:100F4000B3FF044603F062F80028FBD104B101208E
:100F500010BD10B50846510201234FF4007202F093
:100F600003FF02F0DDFF044603F050F80028FBD138
:100F700004B1012010BD000000487047C0B34934DF
:100F8000022909D003290BD0012901D00020704784
:100F90004FF400331360F9E74FF400731380F5E763
:100FA00020231360F2E704E00A7802700131013077
:100FB0001A46531E002AF7D1704702E00170013033
:100FC0001A46531E002AF9D1704770B40346002018
:100FD00001E029463346541E32B15E1C18784D1C80
:100FE0000B782246C01AF4D070BC704700E0013084
:100FF00003780BB18B42FAD1184670472DE9F84FB0
:101000008B46D0F818900B2220214846FFF7D5FFD9
:10101000DBF8007000252B460826A84603F1010ADC
:10102000FC5C202C58D92F2C56D05C2C54D02E2C64
:1010300001D0AE420ED8082E79D12E2C02D0062037
:10104000BDE8F88F4FEA88085FFA88F835465346BE
:101050000B26E3E714F0800F1FD104F17F02D2B218
:101060001E2A04D904F12002D2B21C2A18D8023355
:1010700017F80A10A1F14002D2B23E2A03D981F03A
:1010800080027C2A55D8721EAA4254D96A1C09F8DB
:10109000054009F802100235C0E748F00308DCE714
:1010A00021462848FFF7A2FF002846D1A4F14103BA
:1010B000DBB2192B06D848F0020809F805400135C3
:1010C0005346ABE7A4F16103DBB2192BF5D848F026
:1010D0000108203CE4B2F0E75744CBF80070202C24
:1010E00014D804235DB399F80020E52A10D0082E07
:1010F00012D008F00302012A13D008F00C08B8F14E
:10110000040F11D089F80B30002099E70023E9E79C
:10111000052289F80020EAE74FEA88085FFA88F894
:10112000E7E743F01003E8E743F00803EAE70620A7
:1011300086E7062084E7062082E7062080E706206F
:101140007EE700BF048000082DE9F041C66A8E42A8
:1011500030D00D46044603791BB90DBB0020BDE815
:10116000F08100F130080123324641464078FFF714
:10117000F0FE08BB00232371236AE2691344B342E3
:10118000EBD9E77809E0E3691E4401233246414682
:101190006078FFF7DEFE013FFFB2012FF3D8DCE7F6
:1011A00001232A4604F130016078FFF7C0FE28B918
:1011B000E562D4E70020D2E70120D0E70120CEE7A6
:1011C00010B5044601230A4600F130014078FFF7CC
:1011D000AEFE88BB94F82F2294F82E3243EA022305
:1011E0001BB2184A934229D194F8692094F86830C8
:1011F0001B0443EA026394F8672043EA022394F84D
:101200006620134323F07F430F4A934218D094F88B
:10121000852094F884301B0443EA026394F8832009
:1012200043EA022394F88220134323F07F43064AC3
:10123000934204D0012002E0032000E0022010BD10
:101240000020FCE755AAFFFF4641540088B108B5CD
:10125000027882B1C2888A4201D0092008BD407854
:10126000FFF760FE10F0010F01D10020F6E7032028
:10127000F4E7092070470920F0E70000F8B503689B
:101280001C78303C092C09D85D783A2D01D0002417
:1012900005E00233036014B10B206BE10024C44B62
:1012A00053F824500D60002D00F05D8116462B7818
:1012B00073B16878FFF736FE10F0010F08D1002EE9
:1012C00000F0538110F0040F40F05181002051E1F3
:1012D00000232B70E0B26870FFF707FE10F0010FDB
:1012E00040F047811EB110F0040F40F0448100210E
:1012F0002846FFF765FF012800F0A9800024032895
:1013000000F03B81002840F03A8195F83C2095F8A8
:101310003B3043EA02231BB2B3F5007F40F031813A
:1013200095F8472095F8463053EA02230DD195F8F9
:10133000572095F856301B0443EA026395F8552070
:1013400043EA022395F854201343EB6195F84010CB
:10135000E9704A1ED2B2012A00F2158103FB01F1A5
:1013600095F83D60AE70002E00F00F81721E16429F
:1013700040F00D8195F8422095F8410040EA0220A6
:10138000288110F00F0F40F0048195F8447095F813
:10139000432052EA07220DD195F8537095F8522058
:1013A000120442EA076295F8517042EA072295F862
:1013B00050703A4395F83FC095F83E7057EA0C2CB0
:1013C00000F0E9800CEB010707EB1017BA42C0F000
:1013D000E480D21BB2FBF6F2002A00F0E08040F677
:1013E000F576B2424BD801264FF6F57E724500D90C
:1013F00003260232AA612744AF620CEB04072F6276
:10140000032E3ED0002800F0CE8039446962022EBF
:101410004BD002EB420102F0010202EB510202F258
:10142000FF12B3EB522FC0F0C0804FF0FF332B619F
:101430000023EB60032E3AD02E705D4A938801336F
:101440009BB29380EB800020E862287192E095F8CF
:10145000F2310BB9002452E795F8F93195F8F841CB
:10146000240444EA036495F8F73144EA032495F828
:10147000F6311C4321462846FFF7A2FE3FE702262D
:10148000B2E7002840F08D8095F85F0095F85E1077
:10149000090441EA006195F85D0041EA002195F8F0
:1014A0005C00014369629200B9E75200B7E76B71D3
:1014B00095F8613095F8602042EA032222446A617F
:1014C000012305F130016878FFF731FD0028B3D121
:1014D00095F82F2295F82E3243EA02231BB2354AA3
:1014E0009342A9D195F8332095F832301B0443EA92
:1014F000026395F8312043EA022395F83020134324
:101500002D4A934298D195F8172295F816321B046C
:1015100043EA026395F8152243EA022395F8142260
:101520001343264A934287D195F81F2295F81E321D
:101530001B0443EA026395F81D2243EA022395F84F
:101540001C221343EB6095F81B2295F81A321B04FA
:1015500043EA026395F8192243EA022395F8182218
:1015600013432B6168E70C2004E0002002E00A200E
:1015700000E00320F8BD0A20FCE70120FAE70D2077
:10158000F8E70D20F6E70D20F4E70D20F2E70D2037
:10159000F0E70D20EEE70D20ECE70D20EAE70D2047
:1015A000E8E70D20E6E70D20E4E70D20E2E700BFC5
:1015B0000405002055AAFFFF525261417272416139
:1015C000F8B504460021FFF7BFFD054648B923786A
:1015D000032B08D0002211466078FFF7D1FC00B140
:1015E00001252846F8BD6379002BF3D00027E76278
:1015F00004F130064FF4007239463046FFF7DDFC47
:10160000552384F82E32AA2384F82F32522384F8EB
:10161000303084F83130612384F83230412284F84C
:101620003320722184F8141284F8151284F81622DB
:1016300084F81732236984F81832C3F3072284F838
:101640001922C3F3074284F81A221B0E84F81B32B6
:10165000E36884F81C32C3F3072284F81D22C3F325
:10166000074284F81E221B0E84F81F320123626990
:1016700031466078FFF76DFC6771ABE7023983692B
:10168000023B8B4204D98378806A01FB03007047D8
:1016900000207047012963D9F8B583698B4261D96D
:1016A0000C4606460378022B2CD0032B3DD0012B91
:1016B00002D04FF0FF3056E001EB5107016A01EB19
:1016C0005721FFF741FD00284ED1C7F308033344EB
:1016D00093F830500137316A01EB57213046FFF75C
:1016E00033FD002843D1C7F30807F01990F8300004
:1016F00045EA002014F0010F01D0000933E0C0F3E7
:101700000B0030E0016A01EB1421FFF71DFD88BBDF
:10171000610001F4FF7101F1300333445B7870180C
:1017200090F8300040EA03201DE0016A01EBD4117B
:10173000FFF70AFD08BBA00000F4FE7000F13002C4
:101740003244D17893781B0443EA0163527843EA28
:101750000223304490F83000184320F0704002E03B
:10176000012070470120F8BD4FF0FF30FBE74FF03C
:10177000FF30F8E74FF0FF30F5E74FF0FF30F2E7CA
:1017800070B505460C46C1808168012937D00368D1
:101790009A698A4235D911B91A78032A11D091B9B8
:1017A000E9601A89A2422ED95B6A03EB14132B61FC
:1017B0002B68303304F00F0403EB44146C610020F9
:1017C00070BD596AEBE79E783601B4420FD32868A2
:1017D000FFF760FF0146B0F1FF3F16D0012816D990
:1017E0002B689B69834214D9A41BA4B2EDE7E9607E
:1017F0002868FFF743FF00EB14102861D8E70220A8
:10180000DEE70220DCE70220DAE70120D8E7022049
:10181000D6E70220D4E7F8B5012940F28780836932
:101820008B4240F2858016460C4605460378022B13
:1018300045D0032B58D0012B04D0022301222A715A
:101840001846F8BD01EB5107016A01EB5721FFF77C
:101850007BFC03460028F1D1C7F3080214F0010411
:1018600021D0AB1893F9303003F00F03310101F4AC
:101870007F610B43DBB22A4482F830300137012309
:101880002B71296A01EB57212846FFF75DFC0346BF
:101890000028D3D1C7F308073CB1C6F307162F447D
:1018A00087F83060CAE7F3B2E5E7EA1992F9301039
:1018B00021F00F01C6F303260E43F6B2EFE7016AEB
:1018C00001EB1421FFF740FC03460028B6D161006C
:1018D00001F4FF7101F130002844294481F830609F
:1018E000C6F307264670A9E7016A01EBD411FFF79A
:1018F0002BFC03460028A1D1A10001F4FE7101F1E7
:1019000030002844C4788278120442EA04622944F0
:1019100002F07042164381F83060C6F3072242702D
:10192000C6F307428270360EC67087E7022387E748
:10193000022385E7F8B505460F4631B9C66876B18A
:101940008369B3420CD801260AE0FFF7A3FE0346E1
:1019500001283FD9AA69824241D83E4600E00126CB
:1019600034460CE021462846FFF794FE034670B14A
:10197000B0F1FF3F33D0012831D0B4422ED0013432
:10198000AB69A342EED8012E26D90224EAE76FF014
:10199000704221462846FFF73EFF034600B95FB973
:1019A0008BB9EC602B69B3F1FF3F1AD0013B2B617F
:1019B00001236B71234612E0224639462846FFF781
:1019C0002AFF0346ECE7012B01D0012307E04FF08B
:1019D000FF3304E0012302E0002300E00023184667
:1019E000F8BD2346FBE72DE9F041C4880134A4B2D9
:1019F000002C69D00369002B68D00E46054614F010
:101A00000F0707D101330361C16861B903681B89FE
:101A1000A3425DD9EC802B68303303EB47136B6135
:101A20000020BDE8F08100688378013B13EA1413BD
:101A3000F0D1FFF72FFE804601284BD9B0F1FF3FD0
:101A40004AD028688369434536D8002E46D0E968D5
:101A5000FFF770FF8046002842D0012842D0B0F145
:101A6000FF3F41D000212868FFF76EFB08B101203D
:101A7000D7E728684FF4007200213030FFF79DFA55
:101A80002E6841463046FFF7F9FDF06200262B68CC
:101A90009A78B2420DD901221A7100212868FFF705
:101AA00053FB18BB2A68D36A0133D3620136F6B2FE
:101AB000EDE7DA6A921BDA62C5F80C8041462868C5
:101AC000FFF7DCFD2861A5E70420AAE70420A8E7CA
:101AD0000420A6E70220A4E70120A2E70420A0E753
:101AE00007209EE702209CE701209AE7012098E763
:101AF00038B504460021FFF743FE054640B12846AD
:101B000038BD00212046FFF76EFF05460028F6D1BC
:101B100021692068FFF718FB05460028EFD16069AE
:101B2000037853B1C37A13F0080FEAD10B22A169ED
:101B3000FFF74BFA0028E4D1E1E70425DFE710B511
:101B400082B0044601910B782F2B01D05C2B01D180
:101B5000013101910023A360019B1B781F2B20D929
:101B600001A92046FFF74AFA034608BB2046FFF7C3
:101B7000BFFFA369DA7A0346E8B912F0040F17D160
:101B80006369DA7A12F0100F1CD0597D1A7D42EA8F
:101B90000122D97E9B7E43EA012343EA0243A360EC
:101BA000DEE700212046FFF7EBFD034600226261DD
:101BB000184602B010BD0428FAD112F0040FF7D174
:101BC0000523F5E70523F3E770B504460021FFF789
:101BD000D7FD054688B921692068FFF7B5FA0546A3
:101BE00058B963691B78E52B07D033B10121204632
:101BF000FFF7F9FE05460028EDD00DB1284670BD6F
:101C000021692068FFF7A0FA05460028F6D1666929
:101C1000202200213046FFF7D0F90B22A16930467F
:101C2000FFF7C1F9236801221A71E7E7F8B5012926
:101C300025D904460D4683698B4222D9002704E04A
:101C400001332361012363713546A369AB4219D97E
:101C500029462046FFF71EFD064698B1012813D0FD
:101C6000B0F1FF3F12D0002229462046FFF7D3FDF6
:101C7000074638B92369B3F1FF3FE1D1E4E7022712
:101C800000E002273846F8BD0227FBE70127F9E705
:101C9000034660B9074A52F8202002B1107009B11A
:101CA00000220A70034A42F82310002070470B20DC
:101CB000704700BF040500202DE9F0438DB00646B3
:101CC000019117460023036002F01F0802F01E0274
:101CD00005A901A8FFF7D2FA02AB0B93054600282D
:101CE00040D00A9C0DB9002C42D017F01C0F00F018
:101CF0008480002D43D0042D3CD048F008080A9C75
:101D000015B918F0080F45D145B918F0080F01D0E2
:101D100048F02008059BDB6AF3613462F5B986F868
:101D20000680627D237D43EA0222E17EA37E43EAB0
:101D3000012343EA02433361E27FA37F1B0443EAAA
:101D40000263627F43EA0223227F1343F36000238E
:101D5000B360B361059B3360DB88B38028460DB068
:101D6000BDE8F083019905A8FFF7E9FE0546B8E74D
:101D70000625BAE705A8FFF727FF0546BDE717F0D8
:101D8000040F05D1E37A13F0110FB9D00725B7E797
:101D90000825B5E7FFF7F0F8A073C0F30723E37356
:101DA000C0F307432374000E60740023E3722377AB
:101DB0006377A377E377627D277D47EA0227E17E99
:101DC000A27E42EA0122A376E37623756375059825
:101DD0000123037152EA074796D0D0F82C90394678
:101DE000FFF724FF054600288ED10598013FC76004
:101DF0004946FFF7A9F9054686E7002D84D1E37A25
:101E000013F0100F09D117F0020F3FF47DAF13F05C
:101E1000010F3FF479AF072576E7042574E72DE934
:101E2000F04F83B004468846154699460023C9F80A
:101E3000003081880068FFF709FA0190002840F01F
:101E40009780A37913F0800F40F0BC8013F0010F4E
:101E500000F0BB80E668A368F61AAE4250D32E4667
:101E60004EE06169FFF716FC5BE0A37963F07F0346
:101E7000A371022301937BE0A37963F07F03A37135
:101E80000123019374E0A37963F07F03A37102231C
:101E900001936DE0A37913F0400F04D0A069A0EB8B
:101EA0000A00A84201D36D0220E04FF4007204F151
:101EB000240108EB4020FFF776F8F4E7A37913F04C
:101EC000400F59D1A36953456BD1C4F818A0A1683C
:101ED000C1F30801C1F50075AE4200D2354620318C
:101EE00021442A4604314046FFF75DF8A844A36820
:101EF0002B44A360D9F800302B44C9F80030761B7E
:101F0000002E35D0A368C3F30802002ADFD1206871
:101F10008778013FFFB217EA532708D1002BA0D1E1
:101F200020690128A1D9B0F1FF3FA5D06061D4F8A4
:101F300000B061695846FFF7A1FB82460028A2D095
:101F4000BA44750ABAD07B199BF80220934200D993
:101F5000D51BEBB2524641469BF80100FEF7E7FF66
:101F6000002897D0A37963F07F03A3710123019325
:101F7000019803B0BDE8F08F0123A26904F12401A8
:101F80009BF80100FEF7E5FF20B9A37923F0400399
:101F9000A37197E7A37963F07F03A37101230193F2
:101FA000E6E7214651F8240B012352464078FEF71C
:101FB000BEFF002889D0A37963F07F03A3710123BA
:101FC0000193D5E702230193D2E707230193CFE7DB
:101FD0002DE9F04F83B00446884616469946002303
:101FE000C9F8003081880068FFF730F901900028B7
:101FF00040F0BE80A37913F0800F40F0D88013F03A
:10200000020F00F0D780E368F34270D300266EE041
:102010000021FFF78FFC034620617CE06169FFF738
:1020200089FC034677E0A37963F07F03A371022361
:1020300001939DE0A37963F07F03A37101230193D2
:1020400096E0214651F8240B0123A2694078FEF75F
:1020500080FF20B9A37923F04003A37167E0A3793F
:1020600063F07F03A3710123019381E0A37963F0FF
:102070007F03A371022301937AE0A169A1EB0A0116
:10208000A94201D36D0228E04FF4007208EB412110
:1020900004F12400FEF787FFA37923F04003A37126
:1020A000F0E7A369534503D0A268E3689A4263D37B
:1020B000C4F818A0A068C0F30800C0F50075AE42CF
:1020C00000D23546203020442A4641460430FEF7EF
:1020D0006AFFA37943F04003A371A844A3682B448B
:1020E000A360D9F800302B44C9F80030761B002ECD
:1020F00053D0A368C3F30802002ADBD12068877895
:10210000013FFFB217EA53270DD1002B86D1236977
:10211000002B3FF47DAF002B3FD0012B83D0B3F1D8
:10212000FF3F87D06361A37913F0400F89D1D4F8C2
:1021300000B061695846FFF7A1FA8246002895D0A1
:10214000BA44750AADD07B199BF80220934200D99E
:10215000D51BEBB2524641469BF80100FEF7F9FE53
:1021600000288AD0A37963F07F03A3710123019330
:10217000019803B0BDE8F08F0123524604F1240119
:102180009BF80100FEF7D3FE002891D0A37963F0FD
:102190007F03A37101230193EAE7A368E2689342F6
:1021A00000D9E360A37943F02003A371E0E70223A1
:1021B0000193DDE707230193DAE738B50446818808
:1021C0000068FFF743F80346D0B9A27912F0200F58
:1021D00016D012F0400F0DD0214651F8240B0123E8
:1021E000A2694078FEF7B5FE00283AD1A37923F022
:1021F0004003A371E1692068FEF7A6FF034608B11A
:10220000184638BD256AEB7A43F02003EB72237B36
:102210002B77A3891B0A6B77A37BAB77E37BEB77E9
:10222000237CAB76238A1B0AEB76A37C2B75638A0F
:102230001B0A6B75FEF7A0FEA875C0F30723EB75AC
:10224000C0F307432B76000E6876A37923F02003B2
:10225000A371236801221A712068FFF7B1F90346C0
:10226000CEE70123CCE710B50446FFF7A6FF0346EF
:1022700008B900222260184610BD000070B586B073
:1022800001214FF4001002F06BFB0121022002F04B
:102290003DFB204C04220921204602F0C3F9042210
:1022A0000821204602F0BEF94FF440730493022344
:1022B0008DF8143000258DF8155001268DF8166024
:1022C0008DF8175004A9204602F05CF9A4F5D83423
:1022D000204602F0BFF93146204602F057FAADF829
:1022E00004504BF6FF73ADF80630FE23ADF808300E
:1022F0004FF48063ADF80A304FF48043ADF80C30F2
:1023000006A947F2305341F8183D204602F0D4F9AF
:1023100006B070BD000402402DE9F04F97B00121D6
:10232000172002F0F3FA0121084602F0FDFA0D220F
:102330000621544802F076F9DFF85C810D2206216F
:10234000404602F06FF90D220721404602F06AF97B
:102350004D4D0D220021284602F064F90D22012185
:10236000284602F05FF90D220421284602F05AF9AE
:10237000464F0D220621384602F054F90D22052160
:10238000284602F04FF90D220621284602F04AF9AC
:102390000D220721384602F045F90D220421394863
:1023A00002F040F94FF0C00BCDF840B04FF0020AF8
:1023B0008DF844A04FF003098DF8459000248DF866
:1023C000464001268DF8476010A9404602F0DAF831
:1023D0007323109310A9284602F0D4F8CDF840B02A
:1023E00010A9384602F0CEF8502310938DF844A07F
:1023F0008DF8464010A9234802F0C4F8ADF84840D3
:10240000ADF84A40ADF84C408023ADF84E30402343
:10241000ADF85030ADF85240ADF8544012A801F07C
:1024200073FE31464FF4800002F070FA05F5A845BE
:102430002835284601F0AAFE4FF000730193144B93
:102440000293144B039304940596069407944FF457
:10245000805308934FF4005309934FF480730A9309
:102460004FF400330B9304230C93CDF834900E9467
:102470000F940DEB0301284601F034FF17B0BDE8BF
:10248000F08F00BF00000240001002400004024034
:1024900028000550000010600008024010B5FFF74A
:1024A000EDFE802212216020FEF71CF8A8B9044638
:1024B000FEF770F8632212216020FEF713F8102255
:1024C00040216020FEF70EF8082215216020FEF75B
:1024D00009F8FFF721FF204610BDFF24FBE7FEE7C8
:1024E00030B585B00121084602F010FA01214FF401
:1024F000804002F043FA00258DF80C508DF80F5003
:10250000012404A941F8084D0C4802F03BF80C489E
:102510000460057110234371847101F05DFF06238F
:102520008DF804308DF805408DF806408DF8074091
:1025300001A800F001F905B030BD00BF0000024065
:10254000AC070020034B1860024B1B68002BFBD12B
:10255000704700BF9807002010B584B000238DF8A5
:102560000F3040248DF808408DF8093007228DF88F
:102570000A208DF80B308DF80C3002A800F086FD93
:102580008DF8044010238DF8053020238DF8063097
:1025900001A800F0B7FD1E20FFF7D4FF04A8C02358
:1025A00000F8013D0122222100F050FD04B010BDD1
:1025B00008B54B4C204602F04DF96368494AA2FB2E
:1025C00003235B09B3F1807F0CD223F07F43013BEF
:1025D000454A5360454BF02183F823100023936054
:1025E00007231360FFF7B8FFFFF77AFF00F0FAFA4E
:1025F0004FF6FF7000F0AEFB1F2000F0E1FAFDF790
:1026000037FF00F0A1FBC088400080B2384900F0DD
:102610000DFCFFF743FF002844D100F095FBC08874
:10262000400080B2334900F001FCF0234FF4A07267
:102630000021084600F012FC00F0B1FA01212E48FA
:1026400001F07CFE012001F081FD012001F08EFDF2
:10265000FDF706FF294B00221A706420FFF772FF76
:10266000264B1B78002BF8D0244B00221A70244BE9
:102670001B78012BF1D1104601F078FD204D00248C
:102680002C70FDF781FEF0234FF4A0722146204606
:1026900000F0E4FB00F083FA012001F067FD012364
:1026A0002B70DAE74FF4784000F08AFA00F04CFB28
:1026B000C088400080B2134900F0B8FB00F044FB32
:1026C000C088800080B2104900F0B0FB00F03CFBF5
:1026D000C08800EB80000D4980B200F0A7FBFEE748
:1026E0009C0700201F85EB5110E000E000ED00E0AA
:1026F0001480000828800008286402400A05002091
:10270000680000203C8000085080000868800008B5
:10271000034B1B681BB1024A1368013B13607047EF
:102720009807002040F0BF6040F40030014BD860B3
:10273000704700BF00ED00E0C37853B9037803F0A1
:102740001F015B0901228A402033124941F82320EE
:102750007047114BDB68DB43C3F30222C2F1040173
:10276000C9B20F23134142788A40D2B281780B401C
:1027700013431B01DBB2027806490A4482F8003396
:10278000037803F01F005B090122824041F82320F7
:10279000704700BF00E100E000ED00E0F0B583B05D
:1027A00001210E2002F0B2F82B4C0C220821204609
:1027B00001F038FF0C220921204601F033FF0C22E2
:1027C0000A21204601F02EFF0C220B21204601F0A9
:1027D00029FF0C221146204601F024FF1F4F0C2236
:1027E0000221384601F01EFF4FF47063009301256B
:1027F0008DF8055002238DF8043000268DF8066010
:102800008DF807506946204601F0BCFE0423009372
:102810006946384601F0B6FE4FF4805300938DF8B8
:1028200007606946204601F0ADFE4FF40043009377
:102830008DF804608DF807506946094801F0A2FE42
:1028400029464FF4006002F099F829464FF48000C1
:1028500002F05CF803B0F0BD00080240000C02403A
:102860000004024030B591B00546214C4FF0FA51BA
:10287000204601F079FD0021204601F05FFD204651
:1028800001F084FC4FF0006301931A4B029303950F
:10289000402304930023059306934FF4806207922C
:1028A0004FF4805208924FF4804209920A934FF4F9
:1028B00040330B9304230C9303230D934FF4000335
:1028C0000E934FF400130F9301A9204601F00AFD67
:1028D00001221021204601F061FD2021204601F057
:1028E00038FD0121204601F029FD11B030BD00BFA7
:1028F00058640240802C014030B591B00546204C10
:102900004FF0FA51204601F02FFD0021204601F042
:1029100015FD204601F03AFC4FF000630193194B7E
:102920000293039500230493059306934FF480626A
:1029300007924FF4805208924FF4804209920A9312
:102940004FF440330B9304230C9303230D934FF464
:1029500000030E934FF400130F9301A9204601F0DA
:10296000C1FC01221021204601F018FD2021204643
:1029700001F0EFFC0121204601F0E0FC11B030BD78
:1029800058640240802C014084B0019000230393DE
:10299000019A42F2107303FB02F3039302E0039BDC
:1029A000013B0393039B002BF9D104B07047000057
:1029B000F0B583B001213A2001F0A8FF4CF2337347
:1029C000009302238DF804308DF8053000268DF831
:1029D00006608DF80760504C6946204601F0D2FD34
:1029E0000C223146204601F01DFE0C22012120461A
:1029F00001F018FE0C220421204601F013FE0C22E7
:102A00000521204601F00EFE0C220821204601F08F
:102A100009FE0C220921204601F004FE0C220A21A5
:102A2000204601F0FFFD0C220E21204601F0FAFDA8
:102A30000C220F21204601F0F5FD4FF68073009324
:102A4000364D6946284601F09DFD0C220721284697
:102A500001F0E8FD0C220821284601F0E3FD0C22DC
:102A60000921284601F0DEFD0C220A21284601F04A
:102A7000D9FD0C220B21284601F0D4FD0C22114671
:102A8000284601F0CFFD0C220D21284601F0CAFD99
:102A90000C220E21284601F0C5FD0C220F212846EC
:102AA00001F0C0FD082700976946284601F06AFD3D
:102AB0000C220321284601F0B5FD802300936946CE
:102AC000204601F05FFD0C220A21204601F0AAFDFC
:102AD000009701258DF804508DF805608DF806608B
:102AE0008DF807606946204601F04CFD4FF4005711
:102AF00000978DF804508DF805508DF806608DF81C
:102B000007606946204601F03DFD3946204601F048
:102B100085FD03B0F0BD00BF000C02400010024074
:102B200030B597B00121084601F00CFF0125009552
:102B300000240194092302930394049405940694B9
:102B400007940894099410230A930B940C940D9401
:102B50000E940F944FF48053109311941294139485
:102B6000CDF850D0CDF854D007A801F093FC2946F9
:102B7000204601F0F1FC17B030BD4FF0C043188083
:102B800003F580131980704710B50C4601464E209E
:102B9000FFF7F3FF21464F20FFF7EFFF10BD4FF087
:102BA000C04322221A807047014B1880704700BF33
:102BB00000001060014B1888704700BF00001060D3
:102BC00082B0ADF80600BDF806309BB2014A138012
:102BD00002B070470C050020014B5860704700BFE1
:102BE0000C05002010B5FFF7E3FEFFF799FF052065
:102BF000FFF7CAFE524C0821204601F011FD0A20C1
:102C0000FFF7C2FE0821204601F008FD0121102037
:102C1000FFF7B3FFB2211E20FFF7AFFF06212820E8
:102C2000FFF7ABFF01210020FFF7A7FF43F2EF0101
:102C30000120FFF7A2FF4FF4C0610220FFF79DFFC4
:102C400000211020FFF799FF0520FFF79DFE46F6B3
:102C500030011120FFF791FF40F699111220FFF784
:102C60008CFF4FF460512620FFF787FF33210720A8
:102C7000FFF783FF05210C20FFF77FFF00213020A5
:102C8000FFF77BFF40F203313120FFF776FF40F280
:102C900007413220FFF771FF40F201313320FFF787
:102CA0006CFF40F201313420FFF767FF40F203412F
:102CB0003520FFF762FF40F207713620FFF75DFF16
:102CC0004FF480613720FFF758FF4FF420613A201E
:102CD000FFF753FF4FF480513B20FFF74EFF0A21CF
:102CE0000D20FFF74AFF4FF438510E20FFF745FF44
:102CF0004FF46F414420FFF740FF00214520FFF7CC
:102D00003CFF40F23F114620FFF737FF00214E20E5
:102D1000FFF733FF00214F20FFF72FFF0021222074
:102D2000FFF72BFF002403E00020FFF73DFF0134F5
:102D3000B4F5963FF8D30348FFF74EFF10BD00BF30
:102D4000000C024060000020014B5868704700BF33
:102D50000C05002010B5044600210846FFF714FFBB
:102D6000FFF71DFF002302E0034A14800133B3F58F
:102D7000963FF9D310BD00BF000010602DE9F0416F
:102D800007468846164601464046FFF7FDFE0025E9
:102D90002BE0204110F0010F1BD10C2919D9184B41
:102DA0001888FFF701FF0134164B5B689988A14230
:102DB00014D936F81500144BA3FB0123DB08DB0004
:102DC000802202FA03F323411842E2D10C29E6D90A
:102DD000DFE70C4B1888FFF7E7FEE4E70137BFB2E7
:102DE00039464046FFF7D0FE0135064B5B68DB886D
:102DF000AB4203D9FFF7D3FE0024D5E7BDE8F0814D
:102E00006A0000200C050020ABAAAAAA10B5203A3F
:102E1000D2B2054B5B681C68DB8803FB02F204EB53
:102E20004202FFF7ABFF10BD0C05002070B506464F
:102E30000D4600242A786AB121463046FFF7E6FFA6
:102E4000054B5B689B881C44A4B2B4F5A07F01D2FB
:102E50000135EFE770BD00BF0C050020F8B5054651
:102E60000F4616461C4601464520FFF786FEAB1965
:102E7000B3F5A07F12DB40F23F114620FFF77DFE45
:102E80003B19EF2B10DC1902294389B24420FFF7CC
:102E900074FE39462846FFF777FEF8BDA91989B2B6
:102EA0004620FFF76AFEEBE74FF46F41ECE70000C6
:102EB0002DE9F04389B001214FF4805001F05EFD0F
:102EC0000121084601F022FD0121102001F01EFD24
:102ED0000121102001F01AFD0121102001F016FD42
:102EE0003E4F05221146384601F09CFB0522062183
:102EF000384601F097FB05220721384601F092FB86
:102F000002268DF81C6000248DF81E408DF81F608D
:102F10008DF81D6008AD202345F8083D2946384648
:102F200001F030FB802306932946384601F02AFB46
:102F3000402306932946384601F024FBA7F5504765
:102F4000384601F0FBFDADF80440ADF80840ADF89F
:102F50000A40ADF80C404FF40073ADF80E304FF05E
:102F60000808ADF81080ADF812400723ADF8143012
:102F70004FF48273ADF8063001A9384601F010FE17
:102F80000121384601F032FECDF818804FF00109DA
:102F90008DF81C908DF81E408DF81D6007F5604778
:102FA0002946384601F0EEFA4146384601F036FB34
:102FB000CDF818908DF81C408DF81E408DF81D60DE
:102FC0008DF81F402946384601F0DCFA069629465E
:102FD000384601F0D7FA09B0BDE8F083000002409E
:102FE00010B50446174B4FF480521A600221164860
:102FF00001F00DFE48B9134A1368591E1160002BE9
:10300000F4D1FFF76CFAC0B210BD21460E4801F0B2
:10301000FCFD0C4B4FF480521A6001210A4801F06C
:10302000F6FD48B9074A1368591E1160002BF4D108
:10303000FFF755FAC0B2E7E7034801F0E4FDC0B27C
:10304000E2E700BF6C0000200030014070B505468B
:103050000E461446012A01D941F0400608210A48CB
:1030600001F0DEFA3046FFF7BBFF05E015F8010B73
:10307000FFF7B6FF013CA4B2002CF7D108210248AB
:1030800001F0CCFA70BD00BF0010024030B583B033
:10309000044600238DF80730FFF70AFF6078257893
:1030A000E1782279A378284301430A43134302A815
:1030B00000F8013D01222021FFF7C8FF03B030BD19
:1030C00070B505461446012A09D941F0C006082109
:1030D0000B4801F0A5FA3046FFF782FF09E041F006
:1030E0008006F4E70020FFF77BFF05F8010B013CA9
:1030F000A4B2002CF6D10821014801F08FFA70BD6E
:103100000010024030B583B0054602AC002304F83D
:10311000013D012238212046FFF7D2FF2A78697845
:10312000AB780A4313438DF807300122382120463B
:10313000FFF78CFF03B030BD10B54FF480342CB1D5
:10314000802001F0DBFC08B9013CF8E72CB140F22B
:10315000FF5001F0DDFC002010BD0320FCE7000063
:1031600008B50F4B5A6B4FF4803312F0450F04D162
:103170001BB1013B0A4A526BF7E73BB112F0040F57
:1031800004D112F0400F06D1002003E0042001F02A
:10319000BFFC032008BD402001F0BAFC0020F9E785
:1031A000002C014008B50B4B5B6B01E0094B5B6BDE
:1031B00013F0450FFAD013F0040F05D140F2FF5081
:1031C00001F0A6FC002008BD042001F0A1FC0320B2
:1031D000F9E700BF002C014008B50F4B5B6B01E025
:1031E0000D4B5B6B13F0450FFAD013F0040F08D1B1
:1031F00013F0010F0AD140F2FF5001F089FC0020CA
:1032000008BD042001F084FC0320F9E7012001F04F
:103210007FFC0120F4E700BF002C014010B50446FC
:10322000444B5B6B01E0434B5B6B13F0450FFAD0F3
:1032300013F0040F08D113F0010F0AD101F01AFCAA
:10324000A0420BD0102008E0042001F061FC032014
:1032500003E0012001F05CFC012010BD40F2FF50B2
:1032600001F056FC002001F00BFC334B0340CBB3C4
:10327000002839DB10F0804F38D110F0005F37D1D3
:1032800010F0805F36D110F0006F35D110F0806FF4
:1032900034D110F0807F33D110F4000F32D110F40C
:1032A000800F31D110F4001F30D110F4801F2FD1C6
:1032B00010F4002F2ED110F4802F2DD110F4003FE8
:1032C0002CD110F4803F2BD110F4004F2AD110F4F0
:1032D000804F29D110F4005F28D110F0080F27D0BB
:1032E0001A20BAE70020B8E71C20B6E70920B4E7A7
:1032F0000A20B2E70B20B0E70C20AEE70D20ACE7C8
:103300000E20AAE70F20A8E71020A6E71120A4E7C7
:103310001220A2E71320A0E714209EE715209CE7C7
:1033200016209AE7172098E7182096E7192094E7C7
:10333000002092E7002C014008E0FFFD38B504466C
:103340000D461E4B5B6B01E01C4B5B6B13F0450F96
:10335000FAD013F0040F08D113F0010F0AD101F0D5
:1033600089FBA0420BD0102008E0042001F0D0FB24
:10337000032003E0012001F0CBFB012038BD40F227
:10338000FF5001F0C5FB002001F07AFB10F4604F04
:103390000AD010F4005F0DD110F4804F0CD110F45E
:1033A000004F05D10020E9E7000C28800020E5E768
:1033B0000F20E3E71320E1E71020DFE7002C0140B6
:1033C00070B582B00D460023009301935248082245
:1033D00002601024446040228260C3604FF4806326
:1033E000036101F02FFB2046FFF718FF044610B1E0
:1033F000204602B070BD494B1B681B044648036061
:1034000037244460402383600023C3604FF480630B
:10341000036101F017FB2046FFF700FF0446002878
:10342000E6D13F484FF0FF33036008234360302369
:1034300083600223C360002404610123436101F01F
:103440002BFB354804603326466040238360C4600C
:103450004FF48063036101F0F5FA3046FFF7DEFEBA
:1034600004460028C4D100262E4B5A6B40F22A6332
:103470001A420BD14FF4001001F040FB0028F3D0AA
:1034800001F022FB4DF826000136EDE7082001F09F
:1034900035FB58BB022001F031FB60BB202001F05E
:1034A0002DFB68BB4FF4007001F028FB68BB40F2B5
:1034B000FF5001F02DFB009A130203F47F0343EA4F
:1034C0000263110A01F47F410B4343EA12636B600C
:1034D000019A130203F47F0343EA0263110A01F421
:1034E0007F410B4343EA12632B6081E7082001F020
:1034F0000FFB04247CE7022001F00AFB022477E79B
:10350000202001F005FB062472E74FF4007001F063
:10351000FFFA07246CE700BFB40700201405002061
:1035200030080020002C014010B582B00446002075
:103530000090019001F0A4FA10F0007F61D169467B
:10354000344B1888FFF73CFF034600285AD1012C62
:103550002BD0019B13F4803F59D02E4B1B681B04CA
:103560002D48036037244460402383600023C360F8
:103570004FF48063036101F065FA2046FFF74EFEC9
:10358000034600283ED124480023036006244460FB
:1035900040228260C3604FF48063036101F052FAFD
:1035A0002046FFF73BFE03462CE0019B13F4802FDF
:1035B0002BD0184B1B681B0417480360372444604A
:1035C000402383600023C3604FF48063036101F0F4
:1035D00039FA2046FFF722FE034698B90E48022327
:1035E000036006244460402383600023C3604FF4DB
:1035F0008063036101F026FA2046FFF70FFE0346C1
:1036000000E00E23184602B010BD2523FAE725235B
:10361000F8E700BF14050020B407002000B583B010
:1036200001238DF807304FF40041064800F0EFFF0A
:1036300010B100238DF807309DF8070003B05DF846
:1036400004FB00BF0004024070B582B000248DF876
:103650000740634876230375046044608460C46057
:10366000046101F0C1F9032001F0DEF9012001F04D
:10367000D5F95C48046044608460C4604FF48063A2
:10368000036101F0DFF9FFF757FD8DF807009DF8A2
:10369000073023B19DF80700C0B202B070BD514899
:1036A0004FF4D573036008234360402383600023F5
:1036B000C3604FF48063036101F0C4F9FFF750FD6C
:1036C0008DF807009DF80730EBB9474B01225A608F
:1036D0004FF0804643480023036037244460402273
:1036E0008260C3604FF48063036101F0ABF9204650
:1036F000FFF794FD8DF807009DF80730F3B19DF8B2
:103700000700C0B2C9E73748002606603724446086
:1037100040238360C6604FF48063036101F092F937
:103720002046FFF77BFD8DF80700D3E79DF80700E3
:10373000C0B2B2E79DF80700C0B2AEE70020044671
:103740000246002839D14FF6FE739C4235D82548F1
:10375000002303603725456040228260C3604FF438
:103760008063036101F06EF92846FFF757FD8DF87D
:1037700007009DF80730002BD8D146F0004343F4F2
:10378000801318480360292343604023836000238B
:10379000C3604FF48063036101F054F9FFF702FD49
:1037A0008DF807009DF80730002BC3D1002001F0F1
:1037B00067F90246C00F0134C3E74FF6FE739C421F
:1037C00006D812F0804F9AD0074B02225A6096E733
:1037D0001B238DF807309DF80700C0B25DE700BFDE
:1037E00018080020B40700201405002030B583B06D
:1037F0000123ADF8063001F01DF900286ED03A4BD8
:103800005B68042B48D1384B5B68012B03D9062B2E
:1038100001D0022B14D135480023036003244460F7
:1038200040228260C3604FF48063036101F00AF9B3
:103830000DF106012046FFF781FD044600284ED118
:10384000294B5B68042B4DD0BDF80630264A136027
:103850001B042648036009234360C02383600023C0
:10386000C3604FF48063036101F0ECF8FFF7B4FC30
:103870000446002833D101F003F91B4DA861042050
:1038800001F0FEF8E861082001F0FAF828620C2047
:1038900001F0F6F8686222E0144800230360022277
:1038A0004260C0228260C3604FF48063036101F014
:1038B000C9F8FFF791FC044688B901F0E1F80A4C19
:1038C000A060042001F0DCF8E060082001F0D8F8E6
:1038D00020610C2001F0D4F8606194E72524204693
:1038E00003B030BD0024FAE714050020B40700201F
:1038F00070B4034698494D6880F84E500A88A0F885
:103900004C208A69140EE0B286091E70C4F3830449
:103910005C7000F003009870C2F30740D870C2F3E7
:1039200007201871D2B25A71C9690A0E1201DA80E1
:10393000C1F30742D88840EA1210D88002F00F0283
:103940001A72080AC2B2D4095C72C0F380149C7265
:10395000C0F34014DC72C0F300141C7300245C73C9
:10396000012D40F2A780022D00F0DC80C2F380110F
:103970005976520002F07E029A76774991F820201B
:10398000987E40EAD210987602F07F02DA764C6A8E
:10399000220ED0091877C2F341105877C2F3820083
:1039A0009877920002F00C02DA77200CC2B2DD7F29
:1039B00045EA9215DD77C0F3401083F8200000201F
:1039C00083F8210002F0010283F82220220AD5B2F6
:1039D000EE0983F82360C2F3801683F82460C2F3F3
:1039E000401683F82560C2F3001683F82660C2F300
:1039F000810283F8272005F0030583F82850C4F3DB
:103A0000460483F82940012483F82A408A68150E69
:103A100083F82C50C2F307452D02DD85C2F307253C
:103A2000DE8D3543DD8512061A63CA68160E1D6BDE
:103A300045EA06451D63150C1E6B2D02ADB23543DC
:103A40001D631E6BC2F3072535431D63D2B283F895
:103A500034200A69150E83F83550150C2D069D6328
:103A6000150A9E6B2D0405F47F0535439D639D6B00
:103A7000120292B22A439A634A69996B41EA12612F
:103A80009963110C93F83C50C1F30316354383F846
:103A90003C50090201F47061D987C2F30721DD8F20
:103AA0002943D987C2F3460283F8402083F8414076
:103AB00070BC7047800200F4406018611A69890088
:103AC00001F47F7111431961234A126A100EC1B2C9
:103AD0001C6944EA91141C61C0F3C200187501F01E
:103AE00007015975110CC1F342109875C1F382009A
:103AF000D875490001F006011976C2F30722197E34
:103B000041EAD211197619690131187E023001FAA1
:103B100000F0197ACCB20121A140996401FB00F1B7
:103B2000596423E7090401F47C1119610A4A126AF5
:103B3000100E196941EA002119611869C2F30741A1
:103B400001431961C2F3072219690131C90459649B
:103B50004FF40071996409E71405002010B51B4B60
:103B60005B68032B2BD0022B2BD8B0F5805F2BD0BA
:103B7000B0F5006F10D00020FFF7D6FC044608BB5C
:103B80001348012303750023036043608360C3600F
:103B9000036100F029FF15E00120FFF7C5FC044692
:103BA00080B90B48012303750023036043608360E1
:103BB0004FF40062C260036100F016FF02E02724A8
:103BC00000E00024204610BD2724FBE71405002058
:103BD0001808002010B5094B186007245C604022CB
:103BE0009A600022DA604FF480621A61184600F091
:103BF00029FF2046FFF712FB10BD00BFB4070020CD
:103C000000B583B000238DF80730FEF7C7FD00F044
:103C1000DFFEFFF719FD8DF807009DF807302BB187
:103C20009DF80700C0B203B05DF804FBFFF7DEFDAE
:103C30008DF807009DF807301BB19DF80700C0B252
:103C4000F1E7154801230375002303604360836097
:103C5000C360036100F0C8FE1048FFF749FE8DF80D
:103C600007009DF8073033B19DF8073063B19DF828
:103C70000700C0B2D7E7094BB3F84C000004FFF7C8
:103C8000A9FF8DF80700EFE74FF40060FFF766FF2C
:103C90008DF80700EBE700BF18080020C8070020D8
:103CA0002DE9F04180460E4614461F462A4A002060
:103CB00082F82800D06201231363284BD86253682E
:103CC000022B14D0264804601025456040238360F1
:103CD0000023C3604FF48063036100F0B3FE284605
:103CE000FFF79CFA054630B12846BDE8F0814E0A40
:103CF0004FF40074E6E71B484FF0FF33036007FB07
:103D000004F44460902383600223C36000270761AA
:103D10000123436100F0C0FE114806601225456092
:103D200040238360C7604FF48063036100F08AFE24
:103D30002846FFF773FA05460028D5D1012140F245
:103D40002A3000F0CDFE012000F0C4FE214640469E
:103D5000FEF7D2FDC8E700BF14050020002C01408B
:103D6000B4070020300800202DE9F04107460D4639
:103D70001E463F4B002183F82810D96201201863AA
:103D80003C48C1625B68022B15D090463A480260FD
:103D900010244460402383600023C3604FF4806399
:103DA000036100F04FFE2046FFF738FA044630B1B9
:103DB0002046BDE8F0816D0A4FF40072E5E72C4B18
:103DC0001B681B042C480360372444604023836035
:103DD0000023C3604FF48063036100F033FE20468C
:103DE000FFF71CFA04460028E2D123480660172496
:103DF0004460402383600023C3604FF48063036109
:103E000000F020FE2046FFF709FA04460028CFD133
:103E10001948056019244460402383600023C3606F
:103E20004FF48063036100F00DFE2046FFF7F6F9C2
:103E300004460028BCD111484FF0FF33036006FB55
:103E400008F64660902383600023C3600361012568
:103E5000456100F021FE294640F22A3000F040FE84
:103E6000284600F037FE31463846FEF7FBFC9FE758
:103E700014050020002C0140B40700203008002069
:103E800010B50848002303600C244460402282607F
:103E9000C3604FF48063036100F0D4FD2046FFF758
:103EA000BDF910BDB407002038B54FF0FF3300E076
:103EB000013B194A526B42B9174AD26A2AB9164ACB
:103EC00092F828200AB9002BF2D1134B00225A6332
:103ED0004FF0FF34114B5B6B13F4005F02D00CB159
:103EE000013CF7E70C4B1B6B012B11D000250CB9E3
:103EF00005B9042540F2FF5000F00AFE064B93F886
:103F000028301BB1044B93F82850EDB2284638BD39
:103F1000FFF7B6FF0546EAE714050020002C014034
:103F200038B54FF0FF3300E0013B194A526B42B9FC
:103F3000174AD26A2AB9164A92F828200AB9002BE1
:103F4000F2D1134B00225A634FF0FF34114B5B6BDD
:103F500013F4805F02D00CB1013CF7E70C4B1B6BF4
:103F6000012B11D000250CB905B9042540F2FF50F2
:103F700000F0CEFD064B93F828301BB1044B93F8AC
:103F80002850EDB2284638BDFFF77AFF0546EAE72C
:103F900014050020002C014038B5D8B105460E4B61
:103FA0001B681B040D4803600D244460402383609C
:103FB0000023C3604FF48063036100F043FD20469B
:103FC000FFF72CF9044608B1204638BD00F058FD33
:103FD0002860F9E72624F7E714050020B40700203D
:103FE00000B583B000230193FFF718FB012803D02D
:103FF000FF2003B05DF804FB01A8FFF7CDFF18B95F
:104000000198C0F34320F4E7FF20F2E708B5FFF77B
:10401000E7FF042805D0FF2801D0012008BD0220B9
:10402000FCE70020FAE7000010B54FF4807000F0C4
:1040300075FDE8B9022000F071FD60BB082000F0BA
:104040006DFD80BB202000F069FDA0BB102000F0BA
:1040500065FDC0BB4FF4007000F060FD90B14FF4FF
:10406000007000F065FD1C4B072283F8282009E052
:10407000194C002384F828304FF4807000F058FD6C
:104080000123E36200214CF23A3000F029FD124B8B
:1040900093F8280010BD022000F04AFD0E4B0222CA
:1040A00083F82820EEE7082000F042FD0A4B0422A6
:1040B00083F82820E6E7202000F03AFD064B062290
:1040C00083F82820DEE7102000F032FD024B0522A5
:1040D00083F82820D6E700BF1405002008B5074B59
:1040E0001B6813F0C05F00D108BD054B01225A6365
:1040F0004FF0C251034800F037F9F5E70064024081
:104100001405002058640240F0B50F490B6823F4F1
:10411000804323F001030B600A6822F47F6222F0DF
:104120000202B0F800C0B0F802E08788C6880589AE
:10413000448983894CEA0E003843304328432043A6
:10414000034313430B60F0BD0000055028B9064A35
:10415000136823F4804313607047034A136843F4E1
:1041600080431360704700BF0000055028B9064A1D
:10417000136823F0010313607047034A136843F088
:1041800001031360704700BF00000550036823F06F
:10419000010303600023036043608360C360036125
:1041A000212343613C4B98422DD03C4B98422ED06A
:1041B0003B4B984230D03B4B984232D03A4B9842DE
:1041C00034D03A4B984235D0394B984236D0394B9F
:1041D000984237D0384B984239D0384B98423AD031
:1041E000374B98423CD0374B98423ED0364B9842A2
:1041F00040D0364B984241D0354B984242D0354B57
:10420000984243D07047103B3D229A607047283B4C
:104210004FF474629A607047403B4FF474129A6096
:104220007047583B4FF074629A607047703B2A4A5F
:10423000DA607047883B294ADA607047A03B284A19
:10424000DA607047B83B4FF03D52DA607047103B80
:104250003D229A607047283B4FF474629A60704721
:10426000403B4FF474129A607047583B4FF07462B1
:104270009A607047703B184ADA607047883B174A6B
:10428000DA607047A03B164ADA607047B83B4FF0DF
:104290003D52DA60B6E700BF10600240286002407D
:1042A00040600240586002407060024088600240F6
:1042B000A0600240B86002401064024028640240DE
:1042C00040640240586402407064024088640240C6
:1042D000A0640240B86402403D000020400F00206E
:1042E00000003D2010B40368134A1A400B68CC68E4
:1042F00023434C6923438C692343CC6923430C6AD1
:1043000023434C6A23438C6A23434C6B23438C6BBB
:10431000234313430360426922F00702CB6A0C6B0C
:104320002343134343610B6943604B6883608B688D
:10433000C3605DF8044B70473F801CF021B90368EF
:1043400023F0010303607047036843F00103036037
:10435000704721B9036823F02003036070470368A6
:1043600043F02003036070470A4B98420AD8A3F237
:104370000F4311F0005F07D121F0F02121F08211ED
:1043800099607047044BF4E721F0F02121F082118D
:10439000D96070470F6402400064024011F0800F42
:1043A00004D06AB1436943F080034361802906D099
:1043B0005AB9036801F01E0123EA01010160704748
:1043C000436923F080034361F0E7036801F01E01B5
:1043D00019430160704700008379002B36D010B478
:1043E000204B1A68016822EA01021A605A680168C3
:1043F00022EA01025A60027902F1804202F59E32FD
:1044000011680468214311609A68016822EA010278
:104410009A60DA68016822EA0102DA604379102BB7
:104420000AD003F1804303F59E331A6801680A43FA
:104430001A605DF8044B70470A4B9A6801680A439A
:104440009A60DA6801680A43DA60F2E7037903F1F7
:10445000804303F59E331A68016822EA01021A605C
:10446000704700BF003C0140064A13680340526990
:10447000024202D01BB90020704700207047012083
:10448000704700BF003C0140014B5861704700BFBE
:10449000003C0140436882681343C26813430269C9
:1044A00013434269134382691343C2691343026A87
:1044B0001343426A1343826A1343C26A1343026B73
:1044C000016813434FF0204242F821308368082BE3
:1044D00023D0426B1368516843EA0113916843EAA1
:1044E0000123D16843EA0143116943EA0153516949
:1044F00043EA01639169026801320B434FF02041A6
:1045000041F82230C36AB3F5804F0ED00268114BD8
:104510006FF0704143F822107047016852F8213063
:1045200043F0400342F82130D3E7826B13685168AF
:1045300043EA0113916843EA0123116943EA0153F5
:10454000516943EA0163926901681343014A42F8E1
:1045500021307047040100A041B94FF0204252F8C9
:104560002010074B0B4042F8203070474FF020429C
:1045700052F8203043F0010342F82030704700BF6A
:10458000FEFF0F0000230F2B40D8F0B410E0C268EC
:104590009CB266000324B44022EA0402C260C268EE
:1045A000CC7904FA05F51543C56001330F2B2BD8E0
:1045B00001229A400C68A243F7D104685D000322EF
:1045C000AA40D2431440046004680E79AE403443DC
:1045D00004600C79013CE4B2012CD8D884682240F4
:1045E000826082684C79AC402243826044689FB20A
:1045F0000126BE4024EA0604446044688A79BA4031
:1046000092B222434260C2E7F0BC70477047036930
:10461000194201D100207047012070470183704783
:104620004183704730B401F007039B009A40C908EA
:10463000083150F821400F2505FA03F324EA03035B
:1046400040F8213050F821301A4340F8212030BC86
:104650007047000008B5154B984206D0144B98429D
:104660000ED0144B984216D008BD01214FF4001013
:1046700000F092F900214FF4001000F08DF9F3E7FB
:1046800001214FF4800000F087F900214FF48000F1
:1046900000F082F9E8E701214FF4000000F07CF916
:1046A00000214FF4000000F077F9DDE700540040EE
:1046B00000580040005C0040F0B585B004460D464F
:1046C0008688B6B226F03F06B6B2684600F0C2F859
:1046D00002982B4AA2FB0032920C97B23E43A6806E
:1046E000218889B221F0010189B221802B682549F6
:1046F0008B421ED85B00B0FBF3F39BB2032B00D8B8
:10470000042301372784A383238843F001032380F4
:1047100023889BB223F4816323F00203AA8869896A
:104720000A4313432380AB892A891343238105B0AD
:10473000F0BDEE884BF6FF718E421AD003EB830377
:1047400003EB8303B0FBF3F39BB243F48043C3F367
:104750000B0109B943F0010343F400434FF4967190
:1047600002FB01F2084981FB0212921101322284FC
:10477000C9E703EB4303B0FBF3F39BB2E7E700BFEA
:1047800083DE1B43A0860100D34D621031B903883C
:104790009BB223F001039BB203807047038843F070
:1047A00001030380704731B903889BB223F48073FF
:1047B0009BB203807047038843F480730380704783
:1047C00031B903889BB223F400739BB20380704716
:1047D000038843F400730380704722B901F0FE019F
:1047E00089B20182704741F00101F9E70182704707
:1047F000838A028B43EA024323F07F4331EA0303B7
:1048000001D000207047012070477047FEE7FEE7A7
:10481000FEE7FEE770477047704708B5FDF778FF81
:1048200008BD08B5FFF700FC08BD08B5FFF756FC4A
:1048300008BD000008B50120FFF716FE00B908BD4D
:104840000120FFF721FE024B01221A70F7E700BF9B
:104850000A05002010B4294B9B6803F00C03042BBD
:1048600023D0082B24D013B1254B036001E0244B47
:104870000360224CA368C3F303132249CB5CDAB272
:104880000368D3404360A268C2F382228A5CD2B23A
:1048900023FA02F28260A268C2F342328A5CD2B288
:1048A000D340C3605DF8044B7047174B0360E0E7EB
:1048B000124B5A685B6803F03F0312F4800F12D06A
:1048C000114AB2FBF3F20D4B5B68C3F3881303FB91
:1048D00002F30A4A5268C2F3014201325200B3FBAA
:1048E000F2F30360C5E7064AB2FBF3F2034B5B68E1
:1048F000C3F3881303FB02F3EBE700BF0038024069
:104900000024F4007000002000127A0029B9054A42
:10491000136B23EA000010637047024A136B1843BD
:10492000106370470038024029B9054A536B23EAE7
:10493000000050637047024A536B1843506370473E
:104940000038024029B9054A936B23EA00009063BE
:104950007047024A936B18439063704700380240D7
:1049600029B9054A136C23EA000010647047024A13
:10497000136C1843106470470038024029B9054A87
:10498000536C23EA000050647047024A536C18438A
:10499000506470470038024029B9054A136A23EA77
:1049A000000010627047024A136A18431062704791
:1049B0000038024029B9054A536A23EA00005062D0
:1049C0007047024A536A18435062704700380240E9
:1049D00008B501214FF40060FFF7ECFF00214FF410
:1049E0000060FFF7E7FF08BD10B40B494A6822F4E6
:1049F000FD4222F07F02037D846823434468234301
:104A0000C4682343046823430069034313434B6092
:104A10005DF8044B704700BF002C0140014B18604B
:104A2000704700BFA0802542014B1860704700BF4F
:104A3000002C0140024B186800F00300704700BFD3
:104A4000002C014010B4036809498B60CA6822F445
:104A5000FF6222F00702436884682343C46823434B
:104A6000006903431343CB605DF8044B704700BFFC
:104A7000002C0140014B1869C0B27047002C014066
:104A800082B000230193034B03440193019B1868F8
:104A900002B07047142C014010B40368094A5362F5
:104AA00043689362D16A21F0F7018368C4682343A5
:104AB00004692343406903430B43D3625DF8044B0D
:104AC000704700BF002C0140014BD3F880007047B5
:104AD000002C0140014B1860704700BF8C852542B7
:104AE00029B9054AD36B23EA0000D0637047024A14
:104AF000D36B1843D0637047002C0140034B5B6BB2
:104B0000034201D10020704701207047002C014072
:104B1000014B9863704700BF002C0140034B5B6B57
:104B2000034201D10020704701207047002C014052
:104B3000014B9863704700BF002C014008B5154B2E
:104B4000984206D0144B98420ED0144B984216D07F
:104B500008BD01214FF48050FFF72CFF00214FF4D6
:104B60008050FFF727FFF3E701214FF48040FFF764
:104B700013FF00214FF48040FFF70EFFE8E701210B
:104B80004FF40040FFF708FF00214FF40040FFF70B
:104B900003FFDDE70030014000380040003C0040EA
:104BA0002DE9F041038803F44152B1F800E0B1F877
:104BB0000280B1F804C0CF880E894D898C89CB89D9
:104BC0004EEA080E4CEA0E0C47EA0C073E4335430A
:104BD0002C43234313430380838B9BB223F4006352
:104BE0009BB283830B8A0382BDE8F08131B90388CD
:104BF0009BB223F040039BB203807047038843F0CD
:104C00004003038070478089704781817047038922
:104C1000194201D1002070470120704782B0002363
:104C2000019300932A4A136843F480331360284B9E
:104C30001B6803F400330093019B01330193009B35
:104C40001BB9019BB3F5A06FF1D1214B1B6813F485
:104C5000003F06D001230093009B012B04D002B03B
:104C6000704700230093F7E7194B1A6C42F080520B
:104C70001A6418490A6842F480420A609A689A6085
:104C80009A6842F400429A609A6842F4A0529A608C
:104C9000114A5A601A6842F080721A600C4B1B6805
:104CA00013F0007FFAD00D4B40F205621A60A3F5B5
:104CB00080639A6822F003029A609A6842F00202C6
:104CC0009A60034B9B6803F00C03082BF9D1C6E7ED
:104CD000003802400070004008484006003C024096
:104CE00010B5104CD4F8883043F47003C4F8883001
:104CF0000D4B1A6842F001021A60002199601A688F
:104D000022F0847222F480321A60084A5A601A68CB
:104D100022F480221A60D960FFF780FF4FF0006311
:104D2000A36010BD00ED00E0003802401030002408
:104D3000DFF834D0002103E00C4B5B5843500431C2
:104D40000B480C4B42189A42F6D30B4A02E0002360
:104D500042F8043B094B9A42F9D3FFF7C1FF00F038
:104D600011F8FDF725FC704700000220B88000080C
:104D700000000020E4000020E40000204C08002097
:104D8000FEE7000070B50D4E0D4CA41BA4100025CD
:104D9000A54209D10B4E0C4C00F034FCA41BA4100E
:104DA0000025A54205D170BD56F82530984701353C
:104DB000EEE756F8253098470135F2E7B080000855
:104DC000B0800008B0800008B480000802440346A8
:104DD000934200D1704703F8011BF9E70EB400B508
:104DE0009CB01DAB029006906FF0004109480791FE
:104DF0000491094953F8042B05910068019302A915
:104E000000F066F8029B00221A701CB05DF804EBFB
:104E100003B07047800000200802FFFF2DE9F04733
:104E20008E689E4282460C469046994637D88A89BB
:104E300012F4906F31D0256809696F1A65690223F1
:104E400005EB450595FBF3F509F101033B449D4254
:104E500038BF1D46530530D5294600F02BFB0646CA
:104E600050B90C23CAF80030A38943F04003A38152
:104E70004FF0FF30BDE8F0873A46216900F0A8FA0C
:104E8000A38923F4906343F08003A38126616561C5
:104E90003E44ED1B2660A5604E464E4500D94E4669
:104EA00032464146206800F09EFAA3689B1BA3602F
:104EB00023681E4426600020DCE72A4600F054FBED
:104EC00006460028E2D12169504600F0A5FAC8E75D
:104ED0002DE9F04F1D468B891F069DB080460C467C
:104EE00016460FD50B696BB9402100F0E3FA20603C
:104EF000206128B90C23C8F800304FF0FF30C8E01B
:104F0000402363610023099320238DF82930302347
:104F10008DF82A3003954FF0010B37463D4615F8C2
:104F2000013B0BB1252B3ED1B7EB060A0BD0534604
:104F3000324621464046FFF771FF013000F0A48061
:104F4000099B534409933B78002B00F09D8000237C
:104F50004FF0FF32CDE90523049307938DF85330CA
:104F60001A932F46052217F8011B5048FBF730F91A
:104F7000049BD0B9D90644BF20228DF853201A07CC
:104F800044BF2B228DF853202A782A2A15D0079A5D
:104F90002F4600200A25394611F8013B303B092BEA
:104FA0004DD9B8B10FE02F46B8E7404A801A0BFA46
:104FB00000F0184304903D46D3E7039A111D126890
:104FC0000391002A01DB079204E0524243F00203FE
:104FD000079204933B782E2B0CD17B782A2B33D16C
:104FE000039B1A1D1B680392002BB8BF4FF0FF33C1
:104FF000023705932E4D397803222846FBF7E8F84F
:1050000038B14023401B03FA00F0049B03430137EF
:105010000493397827488DF8281006227E1CFBF768
:10502000D7F8002838D0244B13BB039B073323F059
:10503000070308330393099B4B4409936DE705FB72
:10504000023201200F46A6E70023013705931946D7
:105050000A25384610F8012B303A092A03D9002BCB
:10506000C8D00591C6E705FB012101230746F0E7FB
:1050700003AB00932246114B04A94046AFF30080D6
:10508000B0F1FF3F8146D6D1A3895B063FF535AF2E
:1050900009981DB0BDE8F08F03AB00932246074B83
:1050A00004A9404600F082F8EAE700BF7C800008CF
:1050B0008280000886800008000000001D4E000865
:1050C0002DE9F04791461F468A680B69DDF820807C
:1050D0009342B8BF1346C9F8003091F84320064602
:1050E0000C4612B10133C9F800302368990642BF5B
:1050F000D9F800300233C9F80030256815F00605EC
:1051000007D104F1190AE368D9F800209B1AAB42D1
:1051100028DC94F843302268003318BF012392063C
:105120002DD404F1430239463046C047013020D027
:105130002368E568D9F8002003F00603042B08BFB4
:10514000AD1AA36822690CBF25EAE57500259342D4
:10515000C4BF9B1AED184FF000091A344D451AD1FF
:10516000002008E00123524639463046C04701304E
:1051700003D14FF0FF30BDE8F0870135C3E7E118F8
:105180005A1C302081F84300224494F8451082F8DC
:1051900043100233C5E70123224639463046C04753
:1051A0000130E6D009F10109D8E700002DE9F0430C
:1051B00001F1430C0C46097E85B06E291746064660
:1051C00098460C9A00F0B38022D8632936D00AD8CA
:1051D000002900F0B980582900F0838004F14205CD
:1051E00084F8421032E0642901D06929F6D12068A0
:1051F0001368050603F104012AD51B681160002B12
:1052000003DA2D225B4284F843206F480A2239E0FA
:10521000732900F09D8008D86F2920D07029DDD136
:10522000236843F02003236003E0752917D0782911
:10523000D4D1782384F84530644855E01368191DAB
:105240001B68116004F1420584F8423001238CE0B0
:105250001B68116010F0400F18BF1BB2CFE7136836
:105260002568181D1060280601D51B6802E0680635
:10527000FBD51B8854486F2914BF0A22082200213D
:1052800084F843106568A560002DC0F29580216800
:1052900021F004012160002B3DD1002D40F08E80D3
:1052A0006546082A0BD12368DB0708D523696268A5
:1052B0009A42DEBF302305F8013C05F1FF35ACEB27
:1052C00005032361CDF800803B4603AA2146304602
:1052D000FFF7F6FE01304DD14FF0FF3005B0BDE8CD
:1052E000F083394884F84510136821681D1D1B6838
:1052F00015600A060BD5CA0744BF41F020012160A2
:105300001BB9226822F0200222601022B7E74D0666
:1053100048BF9BB2EFE76546B3FBF2F102FB1133E6
:10532000C35C05F8013D0B460029F5D1B9E71368C8
:1053300025686169181D106028061B6801D5196071
:1053400002E06A06FBD51980002323616546B9E7B0
:105350001368191D11601D68626800212846FAF75C
:1053600037FF08B1401B606063682361002384F845
:105370004330A7E723692A4639463046C047013003
:10538000AAD023689B0713D4E068039B9842B8BF58
:105390001846A3E701234A4639463046C047013044
:1053A0009AD00135E368039A9B1AAB42F2DCEBE733
:1053B000002504F11909F5E7002BACD1037884F836
:1053C000423004F142056CE78D8000089E800008A1
:1053D00010B5431E0A44914200D110BD11F8014B93
:1053E00003F8014FF7E7884210B501EB020307D835
:1053F000421E99420AD011F8014B02F8014FF8E71A
:105400008342F5D98118D21AD34200D110BD13F8C6
:10541000014D01F8014DF7E738B50546002945D0A3
:1054200051F8043C0C1F002BB8BFE41800F0D2F870
:105430001F4A1368104633B9636014602846BDE8FC
:10544000384000F0C8B8A3420CD9216862189342D2
:1054500004BF1A685B68636004BF5218226004606E
:10546000ECE713465A680AB1A242FAD919685818EB
:10547000A0420BD120680144581882421960DDD146
:10548000106852685A6001441960D7E702D90C23AA
:105490002B60D3E7206821188A4204BF1168526844
:1054A000626004BF091821605C60C7E738BD00BFB7
:1054B0005C05002070B5CD1C25F0030508350C2DCA
:1054C00038BF0C25002D064601DBA94203D90C2369
:1054D0003360002070BD00F07DF8214A1468214639
:1054E00091B9204C23681BB9304600F063F8206066
:1054F0002946304600F05EF8431C24D10C2333606B
:10550000304600F068F8E4E70B685B1B18D40B2BFF
:105510000FD90B60CD50CC18304600F05CF804F188
:105520000B00231D20F00700C31AD3D05A42E250CB
:10553000D0E78C424B6816BF636013600C46EBE704
:105540000C464968CCE7C41C24F00304A04205D0F3
:10555000211A304600F02EF80130CFD02560DBE76D
:105560005C05002060050020F8B5074614460E468D
:1055700021B91146BDE8F840FFF79CBF22B9FFF7FB
:105580004BFF25462846F8BD00F026F8A0420FD272
:1055900021463846FFF78EFF05460028F2D03146F7
:1055A0002246FFF715FF31463846FFF735FFE9E79A
:1055B0003546E7E738B5064C002305460846236024
:1055C00000F012F8431C02D1236803B12B6038BDF0
:1055D000480800207047704751F8043C181F002B02
:1055E000BCBF0B58C0187047044A05491368002B0C
:1055F00008BF0B4618441060184670476405002029
:1056000050080020F8B500BFF8BC08BC9E467047A3
:0C561000F8B500BFF8BC08BC9E4670470F
:10561C00000000000000000000000000000000007E
:10562C0040004000400040004000400000004000AE
:10563C00A000A000A000000000000000000000007E
:10564C00000024002400FE004800FC004800480034
:10565C003800540050003800140014005400380076
:10566C004400A800A800500014001A002A002400CE
:10567C00100028002800100074004C004C00300072
:10568C0010001000100000000000000000000000DE
:10569C00080010001000100010001000100008008E
:1056AC00100008000800080008000800080010009E
:1056BC0000000000240018003C001800240000002A
:1056CC0000000000100010007C0010001000000012
:1056DC00000000000000000000000800080010009E
:1056EC0000000000000000003C0000000000000072
:1056FC00000000000000000000000000180018006E
:10570C0008000800080010001000200020002000F5
:10571C001800240024002400240024002400180075
:10572C0008001800280008000800080008000800FD
:10573C0038004400000004000800100020007C0029
:10574C0018002400040018000400040024001800B1
:10575C0004000C001400240044007E00040004002B
:10576C003C00200020003800040004002400180035
:10577C001800240020003800240024002400180005
:10578C003C00040008000800080010001000100085
:10579C001800240024001800240024002400180001
:1057AC0018002400240024001C000400240018000D
:1057BC0000000000100000000000100000000000BD
:1057CC0000000000080000000000080010000000AD
:1057DC000000000004001800200018000400000065
:1057EC000000000000003C0000003C000000000035
:1057FC000000000020001800040018002000000029
:10580C001800240004000800100010000000100014
:10581C003C0042009900A500A5009D004200380004
:10582C0038004400440044007C0044004400440020
:10583C0078004400440078004400440044007800A0
:10584C001C002200420040004000420022001C00CC
:10585C0070004800440044004400440048007000BC
:10586C007C00400040007C004000400040007C0078
:10587C003C002000200038002000200020002000E8
:10588C001C002200420040004E00420022001C007E
:10589C004400440044007C004400440044004400A4
:1058AC00100010001000100010001000100010006C
:1058BC000400040004000400040024002400180068
:1058CC00440048005000700050004800480044005C
:1058DC0020002000200020002000200020003C00A0
:1058EC008200C600C600AA00AA00AA00AA00920064
:1058FC0042006200520052004A004A004600420038
:10590C00180024004200420042004200240018000B
:10591C0078004400440044007800400040004000FF
:10592C001800240042004200420042002C001A00E1
:10593C0078004400440078005000480044004200C5
:10594C003800440040003800040044004400380093
:10595C007C0010001000100010001000100010004F
:10596C004200420042004200420042002400180063
:10597C0044004400280028002800280028001000BB
:10598C009200AA00AA00AA00AA00AA00AA00440039
:10599C0042002400240018001800240024004200B7
:1059AC004400280028001000100010001000100007
:1059BC007C000400080010001000200040007C0057
:1059CC001C001000100010001000100010001C0033
:1059DC001000100008000800080008000400040073
:1059EC001C000400040004000400040004001C005B
:1059FC00100028004400000000000000000000001F
:105A0C00000000000000000000000000000000008A
:105A1C00200010001000000000000000000000003A
:105A2C0000000000180004001C00240024001C00CE
:105A3C00200020002800340024002400340028001A
:105A4C000000000018002400200020002400180092
:105A5C000400040014002C00240024002C0014006A
:105A6C0000000000180024003C0020002400180056
:105A7C00000018001000100018001000100010009A
:105A8C000000180024002400180004002400180052
:105A9C0020002000280034002400240024002400CE
:105AAC00100000001000100010001000100010007A
:105ABC00080000000800080008000800280010007A
:105ACC00200020002400280030002800240024009E
